{
  "address": "0x42a1615C9D7181466EAbeD381D90C4De2F39c02c",
  "abi": [
    {
      "inputs": [
        {
          "internalType": "address",
          "name": "vrfCoordinatorV2address",
          "type": "address"
        },
        {
          "internalType": "uint256",
          "name": "entranceFee",
          "type": "uint256"
        },
        {
          "internalType": "bytes32",
          "name": "keyHash",
          "type": "bytes32"
        },
        {
          "internalType": "uint64",
          "name": "subscriptionId",
          "type": "uint64"
        },
        {
          "internalType": "uint32",
          "name": "callBackGasLimit",
          "type": "uint32"
        },
        {
          "internalType": "uint256",
          "name": "interval",
          "type": "uint256"
        }
      ],
      "stateMutability": "nonpayable",
      "type": "constructor"
    },
    {
      "inputs": [
        {
          "internalType": "address",
          "name": "have",
          "type": "address"
        },
        {
          "internalType": "address",
          "name": "want",
          "type": "address"
        }
      ],
      "name": "OnlyCoordinatorCanFulfill",
      "type": "error"
    },
    {
      "inputs": [
        {
          "internalType": "uint256",
          "name": "currentBalance",
          "type": "uint256"
        },
        {
          "internalType": "uint256",
          "name": "numPlayers",
          "type": "uint256"
        },
        {
          "internalType": "uint256",
          "name": "raffleState",
          "type": "uint256"
        }
      ],
      "name": "Raffle_UpkeepNotNeeded",
      "type": "error"
    },
    {
      "inputs": [],
      "name": "Raffle__NotEnoughETHEntered",
      "type": "error"
    },
    {
      "inputs": [],
      "name": "Raffle__NotOpen",
      "type": "error"
    },
    {
      "inputs": [],
      "name": "Raffle__TransferFailed",
      "type": "error"
    },
    {
      "anonymous": false,
      "inputs": [
        {
          "indexed": true,
          "internalType": "address",
          "name": "winner",
          "type": "address"
        }
      ],
      "name": "WinnerPicked",
      "type": "event"
    },
    {
      "anonymous": false,
      "inputs": [
        {
          "indexed": true,
          "internalType": "address",
          "name": "player",
          "type": "address"
        }
      ],
      "name": "raffleEnter",
      "type": "event"
    },
    {
      "anonymous": false,
      "inputs": [
        {
          "indexed": true,
          "internalType": "uint256",
          "name": "requestId",
          "type": "uint256"
        }
      ],
      "name": "requestedRaffleWinner",
      "type": "event"
    },
    {
      "inputs": [
        {
          "internalType": "bytes",
          "name": "",
          "type": "bytes"
        }
      ],
      "name": "checkUpkeep",
      "outputs": [
        {
          "internalType": "bool",
          "name": "upkeepNeeded",
          "type": "bool"
        },
        {
          "internalType": "bytes",
          "name": "",
          "type": "bytes"
        }
      ],
      "stateMutability": "nonpayable",
      "type": "function"
    },
    {
      "inputs": [],
      "name": "enterRaffle",
      "outputs": [],
      "stateMutability": "payable",
      "type": "function"
    },
    {
      "inputs": [],
      "name": "getEntranceFee",
      "outputs": [
        {
          "internalType": "uint256",
          "name": "",
          "type": "uint256"
        }
      ],
      "stateMutability": "view",
      "type": "function"
    },
    {
      "inputs": [],
      "name": "getInterval",
      "outputs": [
        {
          "internalType": "uint256",
          "name": "",
          "type": "uint256"
        }
      ],
      "stateMutability": "view",
      "type": "function"
    },
    {
      "inputs": [],
      "name": "getLatestTimeStamp",
      "outputs": [
        {
          "internalType": "uint256",
          "name": "",
          "type": "uint256"
        }
      ],
      "stateMutability": "view",
      "type": "function"
    },
    {
      "inputs": [],
      "name": "getNumWords",
      "outputs": [
        {
          "internalType": "uint256",
          "name": "",
          "type": "uint256"
        }
      ],
      "stateMutability": "pure",
      "type": "function"
    },
    {
      "inputs": [],
      "name": "getNumberOfPlayers",
      "outputs": [
        {
          "internalType": "uint256",
          "name": "",
          "type": "uint256"
        }
      ],
      "stateMutability": "view",
      "type": "function"
    },
    {
      "inputs": [
        {
          "internalType": "uint256",
          "name": "id",
          "type": "uint256"
        }
      ],
      "name": "getPlayer",
      "outputs": [
        {
          "internalType": "address",
          "name": "",
          "type": "address"
        }
      ],
      "stateMutability": "view",
      "type": "function"
    },
    {
      "inputs": [],
      "name": "getRaffleState",
      "outputs": [
        {
          "internalType": "enum Raffle.RaffleState",
          "name": "",
          "type": "uint8"
        }
      ],
      "stateMutability": "view",
      "type": "function"
    },
    {
      "inputs": [],
      "name": "getRecentWinner",
      "outputs": [
        {
          "internalType": "address",
          "name": "",
          "type": "address"
        }
      ],
      "stateMutability": "view",
      "type": "function"
    },
    {
      "inputs": [],
      "name": "getRequestConfirmations",
      "outputs": [
        {
          "internalType": "uint256",
          "name": "",
          "type": "uint256"
        }
      ],
      "stateMutability": "pure",
      "type": "function"
    },
    {
      "inputs": [
        {
          "internalType": "bytes",
          "name": "",
          "type": "bytes"
        }
      ],
      "name": "performUpkeep",
      "outputs": [],
      "stateMutability": "nonpayable",
      "type": "function"
    },
    {
      "inputs": [
        {
          "internalType": "uint256",
          "name": "requestId",
          "type": "uint256"
        },
        {
          "internalType": "uint256[]",
          "name": "randomWords",
          "type": "uint256[]"
        }
      ],
      "name": "rawFulfillRandomWords",
      "outputs": [],
      "stateMutability": "nonpayable",
      "type": "function"
    }
  ],
  "transactionHash": "0x1d71edce44c655c44b6b3576e1d79edf3d69c1d36abf4a9130a3147a570e7da0",
  "args": [
    "0x2Ca8E0C643bDe4C2E08ab1fA0da3401AdAD7734D",
    "10000000000000000",
    "0x79d3d8832d904592c0bf9818b621522c988bb8b0c05cdc3b15aea1b6e8db0c15",
    "5601",
    "500000",
    "30"
  ],
  "numDeployments": 1,
  "solcInputHash": "5da09a17d6238c32c18ca94b3dbfd733",
  "bytecode": "0x6101606040523480156200001257600080fd5b50604051620018ab380380620018ab8339818101604052810190620000389190620001d1565b858073ffffffffffffffffffffffffffffffffffffffff1660808173ffffffffffffffffffffffffffffffffffffffff1660601b81525050508460a081815250508573ffffffffffffffffffffffffffffffffffffffff1660c08173ffffffffffffffffffffffffffffffffffffffff1660601b815250508360e081815250508267ffffffffffffffff166101008167ffffffffffffffff1660c01b815250508163ffffffff166101208163ffffffff1660e01b815250506000600160146101000a81548160ff021916908360018111156200013d577f4e487b7100000000000000000000000000000000000000000000000000000000600052602160045260246000fd5b02179055504260028190555080610140818152505050505050505062000355565b6000815190506200016f81620002d3565b92915050565b6000815190506200018681620002ed565b92915050565b6000815190506200019d8162000307565b92915050565b600081519050620001b48162000321565b92915050565b600081519050620001cb816200033b565b92915050565b60008060008060008060c08789031215620001eb57600080fd5b6000620001fb89828a016200015e565b96505060206200020e89828a016200018c565b95505060406200022189828a0162000175565b94505060606200023489828a01620001ba565b93505060806200024789828a01620001a3565b92505060a06200025a89828a016200018c565b9150509295509295509295565b6000620002748262000285565b9050919050565b6000819050919050565b600073ffffffffffffffffffffffffffffffffffffffff82169050919050565b6000819050919050565b600063ffffffff82169050919050565b600067ffffffffffffffff82169050919050565b620002de8162000267565b8114620002ea57600080fd5b50565b620002f8816200027b565b81146200030457600080fd5b50565b6200031281620002a5565b81146200031e57600080fd5b50565b6200032c81620002af565b81146200033857600080fd5b50565b6200034681620002bf565b81146200035257600080fd5b50565b60805160601c60a05160c05160601c60e0516101005160c01c6101205160e01c610140516114da620003d1600039600081816108d801526109460152600061073d0152600061071a015260006106f9015260006106bd0152600081816102fa01526104b0015260008181610337015261038b01526114da6000f3fe6080604052600436106100c25760003560e01c8063473f1ddc1161007f5780636e04ff0d116100595780636e04ff0d1461022557806391ad27b414610263578063e55ae4e81461028e578063fd6673f5146102cb576100c2565b8063473f1ddc146101a457806353a2c19a146101cf5780635f1b0fd8146101fa576100c2565b806309bc33a7146100c7578063115cbaf5146100f25780631fe543e31461011d5780632cfcc53914610146578063320229eb146101505780634585e33b1461017b575b600080fd5b3480156100d357600080fd5b506100dc6102f6565b6040516100e9919061112d565b60405180910390f35b3480156100fe57600080fd5b5061010761031e565b6040516101149190611112565b60405180910390f35b34801561012957600080fd5b50610144600480360381019061013f9190610f0e565b610335565b005b61014e6103f5565b005b34801561015c57600080fd5b506101656105b0565b604051610172919061112d565b60405180910390f35b34801561018757600080fd5b506101a2600480360381019061019d9190610e7b565b6105ba565b005b3480156101b057600080fd5b506101b9610804565b6040516101c6919061104b565b60405180910390f35b3480156101db57600080fd5b506101e461082e565b6040516101f1919061112d565b60405180910390f35b34801561020657600080fd5b5061020f61083d565b60405161021c919061112d565b60405180910390f35b34801561023157600080fd5b5061024c60048036038101906102479190610e7b565b61084a565b60405161025a92919061108f565b60405180910390f35b34801561026f57600080fd5b50610278610942565b604051610285919061112d565b60405180910390f35b34801561029a57600080fd5b506102b560048036038101906102b09190610ebc565b61096a565b6040516102c2919061104b565b60405180910390f35b3480156102d757600080fd5b506102e06109d7565b6040516102ed919061112d565b60405180910390f35b60007f0000000000000000000000000000000000000000000000000000000000000000905090565b6000600160149054906101000a900460ff16905090565b7f000000000000000000000000000000000000000000000000000000000000000073ffffffffffffffffffffffffffffffffffffffff163373ffffffffffffffffffffffffffffffffffffffff16146103e757337f00000000000000000000000000000000000000000000000000000000000000006040517f1cf993f40000000000000000000000000000000000000000000000000000000081526004016103de929190611066565b60405180910390fd5b6103f182826109e3565b5050565b6000600181111561042f577f4e487b7100000000000000000000000000000000000000000000000000000000600052602160045260246000fd5b600160149054906101000a900460ff166001811115610477577f4e487b7100000000000000000000000000000000000000000000000000000000600052602160045260246000fd5b146104ae576040517f1425571c00000000000000000000000000000000000000000000000000000000815260040160405180910390fd5b7f0000000000000000000000000000000000000000000000000000000000000000341015610508576040517fbd4e069500000000000000000000000000000000000000000000000000000000815260040160405180910390fd5b6000339080600181540180825580915050600190039060005260206000200160009091909190916101000a81548173ffffffffffffffffffffffffffffffffffffffff021916908373ffffffffffffffffffffffffffffffffffffffff1602179055503373ffffffffffffffffffffffffffffffffffffffff167f742d070bf0f3edace132a9da8ba725e8cf99c478869cee7f673ed6085e2f8e6460405160405180910390a2565b6000600254905090565b60006105d46040518060200160405280600081525061084a565b509050806106695747600080549050600160149054906101000a900460ff16600181111561062b577f4e487b7100000000000000000000000000000000000000000000000000000000600052602160045260246000fd5b6040517fe059521b00000000000000000000000000000000000000000000000000000000815260040161066093929190611148565b60405180910390fd5b60018060146101000a81548160ff021916908360018111156106b4577f4e487b7100000000000000000000000000000000000000000000000000000000600052602160045260246000fd5b021790555060007f000000000000000000000000000000000000000000000000000000000000000073ffffffffffffffffffffffffffffffffffffffff16635d3b1d307f00000000000000000000000000000000000000000000000000000000000000007f000000000000000000000000000000000000000000000000000000000000000060037f000000000000000000000000000000000000000000000000000000000000000060016040518663ffffffff1660e01b815260040161077e9594939291906110bf565b602060405180830381600087803b15801561079857600080fd5b505af11580156107ac573d6000803e3d6000fd5b505050506040513d601f19601f820116820180604052508101906107d09190610ee5565b9050807fe0abfa81226f1e2ce09ba287cbb4c241e89b2b891a389274bb7d9c46e344daf060405160405180910390a2505050565b6000600160009054906101000a900473ffffffffffffffffffffffffffffffffffffffff16905090565b6000600163ffffffff16905090565b6000600361ffff16905090565b600060606000806001811115610889577f4e487b7100000000000000000000000000000000000000000000000000000000600052602160045260246000fd5b600160149054906101000a900460ff1660018111156108d1577f4e487b7100000000000000000000000000000000000000000000000000000000600052602160045260246000fd5b14905060007f0000000000000000000000000000000000000000000000000000000000000000600254426109059190611228565b119050600080600080549050119050600080471190508380156109255750825b801561092e5750815b80156109375750805b955050505050915091565b60007f0000000000000000000000000000000000000000000000000000000000000000905090565b60008082815481106109a5577f4e487b7100000000000000000000000000000000000000000000000000000000600052603260045260246000fd5b9060005260206000200160009054906101000a900473ffffffffffffffffffffffffffffffffffffffff169050919050565b60008080549050905090565b6000808054905082600081518110610a24577f4e487b7100000000000000000000000000000000000000000000000000000000600052603260045260246000fd5b6020026020010151610a369190611378565b90506000808281548110610a73577f4e487b7100000000000000000000000000000000000000000000000000000000600052603260045260246000fd5b9060005260206000200160009054906101000a900473ffffffffffffffffffffffffffffffffffffffff16905080600160006101000a81548173ffffffffffffffffffffffffffffffffffffffff021916908373ffffffffffffffffffffffffffffffffffffffff160217905550600067ffffffffffffffff811115610b22577f4e487b7100000000000000000000000000000000000000000000000000000000600052604160045260246000fd5b604051908082528060200260200182016040528015610b505781602001602082028036833780820191505090505b5060009080519060200190610b66929190610cac565b50426002819055506000600160146101000a81548160ff02191690836001811115610bba577f4e487b7100000000000000000000000000000000000000000000000000000000600052602160045260246000fd5b021790555060008173ffffffffffffffffffffffffffffffffffffffff1647604051610be590611036565b60006040518083038185875af1925050503d8060008114610c22576040519150601f19603f3d011682016040523d82523d6000602084013e610c27565b606091505b5050905080610c62576040517fa1d04b3900000000000000000000000000000000000000000000000000000000815260040160405180910390fd5b8173ffffffffffffffffffffffffffffffffffffffff167f5b690ec4a06fe979403046eaeea5b3ce38524683c3001f662c8b5a829632f7df60405160405180910390a25050505050565b828054828255906000526020600020908101928215610d25579160200282015b82811115610d245782518260006101000a81548173ffffffffffffffffffffffffffffffffffffffff021916908373ffffffffffffffffffffffffffffffffffffffff16021790555091602001919060010190610ccc565b5b509050610d329190610d36565b5090565b5b80821115610d4f576000816000905550600101610d37565b5090565b6000610d66610d61846111a4565b61117f565b90508083825260208201905082856020860282011115610d8557600080fd5b60005b85811015610db55781610d9b8882610e51565b845260208401935060208301925050600181019050610d88565b5050509392505050565b6000610dd2610dcd846111d0565b61117f565b905082815260208101848484011115610dea57600080fd5b610df5848285611305565b509392505050565b600082601f830112610e0e57600080fd5b8135610e1e848260208601610d53565b91505092915050565b600082601f830112610e3857600080fd5b8135610e48848260208601610dbf565b91505092915050565b600081359050610e608161148d565b92915050565b600081519050610e758161148d565b92915050565b600060208284031215610e8d57600080fd5b600082013567ffffffffffffffff811115610ea757600080fd5b610eb384828501610e27565b91505092915050565b600060208284031215610ece57600080fd5b6000610edc84828501610e51565b91505092915050565b600060208284031215610ef757600080fd5b6000610f0584828501610e66565b91505092915050565b60008060408385031215610f2157600080fd5b6000610f2f85828601610e51565b925050602083013567ffffffffffffffff811115610f4c57600080fd5b610f5885828601610dfd565b9150509250929050565b610f6b8161125c565b82525050565b610f7a8161126e565b82525050565b610f898161127a565b82525050565b6000610f9a82611201565b610fa4818561120c565b9350610fb4818560208601611314565b610fbd81611465565b840191505092915050565b610fd1816112f3565b82525050565b6000610fe460008361121d565b9150610fef82611476565b600082019050919050565b61100381611297565b82525050565b611012816112c5565b82525050565b611021816112cf565b82525050565b611030816112df565b82525050565b600061104182610fd7565b9150819050919050565b60006020820190506110606000830184610f62565b92915050565b600060408201905061107b6000830185610f62565b6110886020830184610f62565b9392505050565b60006040820190506110a46000830185610f71565b81810360208301526110b68184610f8f565b90509392505050565b600060a0820190506110d46000830188610f80565b6110e16020830187611027565b6110ee6040830186610ffa565b6110fb6060830185611018565b6111086080830184611018565b9695505050505050565b60006020820190506111276000830184610fc8565b92915050565b60006020820190506111426000830184611009565b92915050565b600060608201905061115d6000830186611009565b61116a6020830185611009565b6111776040830184611009565b949350505050565b600061118961119a565b90506111958282611347565b919050565b6000604051905090565b600067ffffffffffffffff8211156111bf576111be611436565b5b602082029050602081019050919050565b600067ffffffffffffffff8211156111eb576111ea611436565b5b6111f482611465565b9050602081019050919050565b600081519050919050565b600082825260208201905092915050565b600081905092915050565b6000611233826112c5565b915061123e836112c5565b925082821015611251576112506113a9565b5b828203905092915050565b6000611267826112a5565b9050919050565b60008115159050919050565b6000819050919050565b600081905061129282611479565b919050565b600061ffff82169050919050565b600073ffffffffffffffffffffffffffffffffffffffff82169050919050565b6000819050919050565b600063ffffffff82169050919050565b600067ffffffffffffffff82169050919050565b60006112fe82611284565b9050919050565b82818337600083830152505050565b60005b83811015611332578082015181840152602081019050611317565b83811115611341576000848401525b50505050565b61135082611465565b810181811067ffffffffffffffff8211171561136f5761136e611436565b5b80604052505050565b6000611383826112c5565b915061138e836112c5565b92508261139e5761139d6113d8565b5b828206905092915050565b7f4e487b7100000000000000000000000000000000000000000000000000000000600052601160045260246000fd5b7f4e487b7100000000000000000000000000000000000000000000000000000000600052601260045260246000fd5b7f4e487b7100000000000000000000000000000000000000000000000000000000600052602160045260246000fd5b7f4e487b7100000000000000000000000000000000000000000000000000000000600052604160045260246000fd5b6000601f19601f8301169050919050565b50565b6002811061148a57611489611407565b5b50565b611496816112c5565b81146114a157600080fd5b5056fea2646970667358221220997e04d90a3e1691193c0a6da1562d140810a09960ed79b40a7d362c85de6cda64736f6c63430008040033",
  "devdoc": {
    "author": "Reginald Dewil",
    "details": "Chainlink automation & chainlink VRF",
    "kind": "dev",
    "methods": {},
    "title": "A sample Raffle Contract",
    "version": 1
  },
  "userdoc": {
    "kind": "user",
    "methods": {
      "constructor": {
        "notice": "Functions "
      },
      "getEntranceFee()": {
        "notice": "View / Pure functions "
      }
    },
    "notice": "This contract is for creating an untamperable decentralized lottery contract",
    "version": 1
  },
  "storageLayout": {
    "storage": [
      {
        "astId": 243,
        "contract": "contracts/Raffle.sol:Raffle",
        "label": "s_players",
        "offset": 0,
        "slot": "0",
        "type": "t_array(t_address_payable)dyn_storage"
      },
      {
        "astId": 260,
        "contract": "contracts/Raffle.sol:Raffle",
        "label": "s_recentWinner",
        "offset": 0,
        "slot": "1",
        "type": "t_address"
      },
      {
        "astId": 263,
        "contract": "contracts/Raffle.sol:Raffle",
        "label": "s_raffleState",
        "offset": 20,
        "slot": "1",
        "type": "t_enum(RaffleState)238"
      },
      {
        "astId": 265,
        "contract": "contracts/Raffle.sol:Raffle",
        "label": "s_lastTimeStamp",
        "offset": 0,
        "slot": "2",
        "type": "t_uint256"
      }
    ],
    "types": {
      "t_address": {
        "encoding": "inplace",
        "label": "address",
        "numberOfBytes": "20"
      },
      "t_address_payable": {
        "encoding": "inplace",
        "label": "address payable",
        "numberOfBytes": "20"
      },
      "t_array(t_address_payable)dyn_storage": {
        "base": "t_address_payable",
        "encoding": "dynamic_array",
        "label": "address payable[]",
        "numberOfBytes": "32"
      },
      "t_enum(RaffleState)238": {
        "encoding": "inplace",
        "label": "enum Raffle.RaffleState",
        "numberOfBytes": "1"
      },
      "t_uint256": {
        "encoding": "inplace",
        "label": "uint256",
        "numberOfBytes": "32"
      }
    }
  }
}